:100000000C9434000C9451000C9451000C94510049
:100010000C9451000C9451000C9451000C9451001C
:100020000C9451000C9451000C9451000C9451000C
:100030000C9451000C9451000C9451000C945100FC
:100040000C9451000C9451000C9451000C945100EC
:100050000C9451000C9451000C9451000C945100DC
:100060000C9451000C94510011241FBECFEFD8E026
:10007000DEBFCDBF11E0A0E0B1E0E8EFF4E002C0E8
:1000800005900D92A231B107D9F721E0A2E1B1E0CC
:1000900001C01D92AC33B207E1F70E9407020C9435
:1000A0007A020C9400005F98289A86302FEF92070E
:1000B00014F486E09FEF91958195910990938B00C0
:1000C00080938A0008955E9A5D9886302FEF92079C
:1000D00014F486E09FEF91958195910990938900A2
:1000E000809388000895CF93DF93D62FC42FB0E07C
:1000F000A0E09C01AD0184E0220F331F441F551F77
:100100008A95D1F760E074E284EF90E00E944402A7
:10011000215031093093C5002093C4008091C20062
:1001200080628093C2008091C20086608093C2008A
:10013000DD2329F08091C10080618093C100CC2330
:1001400029F08091C10088608093C100DF91CF9138
:1001500008959091C00095FFFCCF8093C60008954C
:10016000EAE3F1E02AE030E0B9010E943002805D6C
:100170008293CB0141E0E633F407B1F70895CF93C2
:10018000DF93E0E0F1E0A8E2B1E0CAE1D1E041E0D4
:1001900050E080917C00807C80937C0080917C008A
:1001A00090813296892B80937C008FE39CE90197A4
:1001B000F1F700C0000080917A00806480937A009B
:1001C00080917A0086FDFCCF2091780080917900A3
:1001D00090E0982F8827820F911D89939993853FEE
:1001E00091405CF011965C934E93129681E0EE3054
:1001F000F80779F6DF91CF91089511961C921E921F
:10020000F4CF84B1876084B98AB1846E8AB95A9870
:100210005E985D9A5F98289AE0E8F0E08081806AB5
:100220008083808181608083E1E8F0E08081886064
:1002300080838081826080835B9AEAE7F0E080813E
:1002400087688083ECE7F0E0808180648083089594
:100250000F931F93CF93DF93809116019091170115
:10026000E5E0F0E0892B11F4EAE0F0E0A8E2B1E08B
:100270002DEF3FEF70E060E090E080E04D915D9108
:10028000249F8001259F100D349F100D11240E9F77
:10029000E0010F9FD00D1E9FD00D11248C0F9D1FCC
:1002A000640F751F2F5F3F4F2430310539F76115FB
:1002B0007105C9F00E943002709319016093180112
:1002C00080911601909117018130910541F577FDDC
:1002D00004C01092170110921601CB01DF91CF914B
:1002E0001F910F91089580911801909119018C3EF2
:1002F0002FEF92074CF481E090E0909317018093E8
:10030000160168ED7FEFDCCF4597D4F282E090E0F4
:10031000909317018093160168E270E0D1CF0297A5
:10032000E1F616161706CCF2D4CF20913A0130919F
:100330003B018091140190911501B901681B790B63
:1003400030931501209314018091100190911101B7
:10035000289FA001299F500D389F500D11242091F6
:10036000120130911301629FC001639F900D729F33
:10037000900D1124840F951F08951816190664F422
:100380005F9A28988B3F910514F08AEF90E0909344
:100390008B0080938A0008950C9453001816190658
:1003A00064F45E985D9A8B3F910514F08AEF90E0BB
:1003B000909389008093880008950C94630090E0E6
:1003C00080E00E94530090E080E00C946300089568
:1003D000CF93DF930E94BF000E94280190933B01BE
:1003E00080933A010E949501EC0180910E01909159
:1003F0000F018C0F9D1F0E94BD0180910E019091F5
:100400000F018C1B9D0BDF91CF910C94CE010E94AC
:1004100001015A9A41E060E080E895E20E94730091
:10042000C0E0D1E04B9917C0CD2711F40E94DF0145
:100430002FEF83ED90E3215080409040E1F700C022
:1004400000002FEF81EE94E0215080409040E1F7D2
:1004500000C00000E7CFCC23A1F30E94E801F1CF58
:1004600097FB072E16F4009407D077FD09D00E9461
:10047000660207FC05D03EF4909581959F4F089544
:10048000709561957F4F0895A1E21A2EAA1BBB1BA0
:10049000FD010DC0AA1FBB1FEE1FFF1FA217B30750
:1004A000E407F50720F0A21BB30BE40BF50B661F66
:1004B000771F881F991F1A9469F76095709580952A
:1004C00090959B01AC01BD01CF010895AA1BBB1BF8
:1004D00051E107C0AA1FBB1FA617B70710F0A61B44
:1004E000B70B881F991F5A95A9F780959095BC0165
:0804F000CD010895F894FFCF3F
:1004F8000300040005000200070006000100960042
:020508000100F0
:00000001FF
