:100000000C9434000C9451000C9451000C94510049
:100010000C9451000C9451000C9451000C9451001C
:100020000C9451000C9451000C9451000C9451000C
:100030000C9451000C9451000C9451000C945100FC
:100040000C9451000C9451000C9451000C945100EC
:100050000C9451000C9451000C9451000C945100DC
:100060000C9451000C94510011241FBECFEFD8E026
:10007000DEBFCDBF11E0A0E0B1E0E8EAF5E002C0EC
:1000800005900D92A631B107D9F721E0A6E1B1E0C4
:1000900001C01D92A234B207E1F70E9458020C94ED
:1000A000D2020C9400005F98289A86302FEF9207B6
:1000B00014F486E09FEF91958195910990938B00C0
:1000C00080938A0008955E9A5D9886302FEF92079C
:1000D00014F486E09FEF91958195910990938900A2
:1000E000809388000895CF93DF93D62FC42FB0E07C
:1000F000A0E09C01AD0184E0220F331F441F551F77
:100100008A95D1F760E074E284EF90E00E949C024F
:10011000215031093093C5002093C4008091C20062
:1001200080628093C2008091C20086608093C2008A
:10013000DD2329F08091C10080618093C100CC2330
:1001400029F08091C10088608093C100DF91CF9138
:1001500008959091C00095FFFCCF8093C60008954C
:10016000EEE3F1E02AE030E0B9010E948802805D10
:100170008293CB0141E0EA33F407B1F70895CF93BE
:10018000DF93E0E0F1E0ACE2B1E0CEE1D1E041E0CC
:1001900050E080917C00807C80937C0080917C008A
:1001A00090813296892B80937C008FE39CE90197A4
:1001B000F1F700C0000080917A00806480937A009B
:1001C00080917A0086FDFCCF2091780080917900A3
:1001D00090E0982F8827820F911D89939993209101
:1001E000400130914101281739075CF411965C9366
:1001F0004E93129691E0EE30F90759F6DF91CF91C8
:10020000089511961C921E92F4CF84B1876084B930
:100210008AB1846E8AB95A985E985D9A5F98289AD6
:10022000E0E8F0E08081806A808380818160808363
:10023000E1E8F0E080818860808380818260808353
:100240005B9AEAE7F0E0808187688083ECE7F0E082
:1002500080818064808308950F931F93CF93DF93F1
:1002600080911A0190911B01E5E0F0E0892B11F4D7
:10027000EAE0F0E0ACE2B1E02DEF3FEF70E060E0EB
:1002800090E080E04D915D91249F8001259F100DAD
:10029000349F100D11240E9FE0010F9FD00D1E9F63
:1002A000D00D11248C0F9D1F640F751F2F5F3F4FC2
:1002B0002430310539F761157105C9F00E948802B3
:1002C00070931D0160931C0180911A0190911B0194
:1002D0008130910541F577FD04C010921B01109209
:1002E0001A01CB01DF91CF911F910F910895809159
:1002F0001C0190911D018C3E2FEF92074CF481E080
:1003000090E090931B0180931A0168ED7FEFDCCFA2
:100310004597D4F282E090E090931B0180931A01FC
:1003200068E270E0D1CF0297E1F616161706CCF21C
:10033000D4CF20913E0130913F01809118019091DE
:100340001901B901681B790B309319012093180129
:100350008091140190911501289FA001299F500DB3
:10036000389F500D11242091120130911301629F8A
:10037000C001639F900D729F900D1124840F951FF3
:1003800008951816190664F45F9A28988B3F910512
:1003900014F08AEF90E090938B0080938A00089588
:1003A0000C9453001816190664F45E985D9A8B3FFE
:1003B000910514F08AEF90E0909389008093880073
:1003C00008950C94630090E080E00E94530090E058
:1003D00080E00C9463000895CF93DF930E94BF00E8
:1003E0000E942C0190933F0180933E010E9499014D
:1003F000EC0180911001909111018C0F9D1F0E94C2
:10040000C10180911001909111018C1B9D0BDF9116
:10041000CF910C94D201CF93DF9384E690E00E94B9
:10042000C1018CE99FEF0E946300C4E6D0E00E9406
:10043000BF00409116015091170120910E0130919B
:100440000F01EEE1F1E081919191481759070CF409
:10045000AC01821793070CF49C0181E0EC32F807A1
:1004600091F7509317014093160130930F01209399
:100470000E018FE99FE00197F1F700C0000021977E
:10048000B1F60E94E30180910E0190910F0120913D
:10049000160130911701820F931F97FD01969595D4
:1004A00087959093410180934001DF91CF9108950A
:1004B0000E9405015A9A41E060E080E895E20E94BE
:1004C0007300D0E0C0E011E04B991DC0D1110DC008
:1004D0002FEF83ED90E3215080409040E1F700C082
:1004E00000000E940B02D1E0EFCFC12711F40E945F
:1004F000E3012FEF83ED90E3215080409040E1F73E
:1005000000C00000E1CFCC23F9F20E94EC01DCCF67
:1005100097FB072E16F4009407D077FD09D00E94B0
:10052000BE0207FC05D03EF4909581959F4F08953B
:10053000709561957F4F0895A1E21A2EAA1BBB1BEF
:10054000FD010DC0AA1FBB1FEE1FFF1FA217B3079F
:10055000E407F50720F0A21BB30BE40BF50B661FB5
:10056000771F881F991F1A9469F760957095809579
:1005700090959B01AC01BD01CF010895AA1BBB1B47
:1005800051E107C0AA1FBB1FA617B70710F0A61B93
:10059000B70B881F991F5A95A9F780959095BC01B4
:0805A000CD010895F894FFCF8E
:1005A8000300040005000200070006000100E8033C
:0605B800640002000200D5
:00000001FF
