:1000000012C02CC02BC02AC029C028C027C026C0BF
:1000100025C024C023C022C021C020C01FC01EC0D4
:100020001DC01CC01BC011241FBECFE5D4E0DEBF25
:10003000CDBF10E0A0E6B0E0EAE5F4E002C0059034
:100040000D92A237B107D9F720E0A2E7B0E001C0D6
:100050001D92AE38B207E1F76BD1FDC1D1CF9798B1
:10006000C09A86302FEF920714F486E09FEF9195A7
:100070008195910999BD88BD08959698959A863085
:100080002FEF920714F486E09FEF919581959109E7
:100090009BBD8ABD0895CF93DF93D62FC42FB0E0C8
:1000A000A0E09C01AD0184E0220F331F441F551FC7
:1000B0008A95D1F760E074E284EF90E096D1215008
:1000C000310930BD29B980B5806280BD80B58668B0
:1000D00080BDD111549AC111539ADF91CF910895E7
:1000E0005D9BFECF8CB90895ECE8F0E02AE030E0AB
:1000F000B90168D1805D8293CB0140E0E838F40714
:10010000B9F70895A0E6B0E0EAE7F0E041E050E09A
:1001100087B1807C87B987B19C911296892B87B96A
:10012000369A3699FECF24B185B190E0982F882772
:10013000820F911D91838083893C910544F0518306
:100140004083329680E0AE36B80711F708951182E9
:100150001082F7CF87B3876087BB81B3846E81BB82
:1001600092989698959A9798C09A8FB5806A8FBD05
:100170008FB581608FBD8EB588608EBD8EB5826073
:100180008EBD939A86B1876886B93E9A08950F937B
:100190001F93CF93DF938091760090917700E5E0F5
:1001A000F0E0892B11F4EAE0F0E0AAE7B0E02DEFEF
:1001B0003FEF70E060E090E080E04D915D91249F22
:1001C0008001259F100D349F100D11240E9FE0011A
:1001D0000F9FD00D1E9FD00D11248C0F9D1F640FFB
:1001E000751F2F5F3F4F2430310539F761157105B9
:1001F000C1F0E8D070937900609378008091760028
:10020000909177008130910541F577FD04C01092FF
:10021000770010927600CB01DF91CF911F910F9163
:10022000089580917800909179008C3E2FEF92078D
:100230004CF481E090E0909377008093760068ED35
:100240007FEFDCCF4597D4F282E090E09093770087
:100250008093760068E270E0D1CF0297E1F616163F
:100260001706CCF2D4CF20918C0030918D00809174
:10027000740090917500B901681B790B309375007B
:10028000209374008091700090917100289FA001CC
:10029000299F500D389F500D1124209172003091EC
:1002A0007300629FC001639F900D729F900D112497
:1002B000840F951F08951816190654F4979AC0983C
:1002C0008B3F910514F08AEF90E099BD88BD0895A9
:1002D000C6CE1816190654F4969A95988B3F910538
:1002E00014F08AEF90E09BBD8ABD0895C6CE90E0E1
:1002F00080E0C3DE90E080E0B2CE0895CF93DF933C
:1003000001DF45DF90938D0080938C00ACDFEC0122
:1003100080916E0090916F008C0F9D1FDADF8091AD
:100320006E0090916F008C1B9D0BDF91CF91C3CF1E
:1003300011DF929A41E060E080E895E2ACDED0E027
:100340009CE8C92E90E0D92E839915C0D1110EC01A
:100350008AEF90E0BEDFD1E0FFEF23ED80E3F150C4
:1003600020408040E1F700C00000EECF84E690E03E
:10037000B0DFD0E0F1CF8AE7E82E80E0F82EC0E3CE
:10038000F701819191917F01AFDE88E2A9DE8C2F88
:10039000A7DE89E2A5DE80E2A3DE08E810E0F8012E
:1003A00081918F019DDEC016D106C9F78AE098DEE3
:1003B0008DE096DECF5FC73319F78AE091DE8DE0DE
:1003C0008FDECACF97FB072E16F4009406D077FD78
:1003D00008D02DD007FC05D03EF4909581959F4F15
:1003E0000895709561957F4F0895A1E21A2EAA1B7A
:1003F000BB1BFD010DC0AA1FBB1FEE1FFF1FA217D5
:10040000B307E407F50720F0A21BB30BE40BF50BD1
:10041000661F771F881F991F1A9469F7609570955A
:10042000809590959B01AC01BD01CF010895AA1B59
:10043000BB1B51E107C0AA1FBB1FA617B70710F0CF
:10044000A61BB70B881F991F5A95A9F78095909501
:0A045000BC01CD010895F894FFCF20
:10045A00030004000500020007000000010050002C
:02046A0001008F
:00000001FF
