:1000000012C02CC02BC02AC029C028C027C026C0BF
:1000100025C024C023C022C021C020C01FC01EC0D4
:100020001DC01CC01BC011241FBECFE5D4E0DEBF25
:10003000CDBF10E0A0E6B0E0E4E2F4E002C005903D
:100040000D92A237B107D9F720E0A2E7B0E001C0D6
:100050001D92AE38B207E1F779D1E2C1D1CF9798BE
:10006000C09A86302FEF920714F486E09FEF9195A7
:100070008195910999BD88BD08959698959A863085
:100080002FEF920714F486E09FEF919581959109E7
:100090009BBD8ABD0895CF93DF93D62FC42FA0E0D8
:1000A000B0E09C01AD0184E0220F331F441F551FB7
:1000B0008A95D1F760E074E284EF90E07BD1215023
:1000C000310930BD29B980B5806280BD80B58668B0
:1000D00080BDD111549AC111539ADF91CF910895E7
:1000E0005D9BFECF8CB90895ECE8F0E02AE030E0AB
:1000F000B9014DD1805D8293CB0140E0E838F4072F
:10010000B9F7089587B3876087BB81B3846E81BBDD
:1001100092989698959A9798C09A8FB5806A8FBD55
:100120008FB581608FBD8EB588608EBD8EB58260C3
:100130008EBD939A86B1876886B93E9A089518163F
:10014000190654F4979AC0988B3F910514F08AEFE2
:1001500090E099BD88BD089582CF1816190654F411
:10016000969A95988B3F910514F08AEF90E09BBD8D
:100170008ABD089582CF80E090E07FDF80E090E04C
:100180006ECFEF92FF920F931F93CF938AE7E82EE3
:1001900080E0F82EC0E3F701819191917F01A4DF07
:1001A00088E29EDF8C2F9CDF89E29ADF80E298DF75
:1001B00008E810E0F80181918F0192DFF0E00C383F
:1001C0001F07C1F78AE08CDF8DE08ADFCF5FC7337E
:1001D00011F78AE085DF8DE0CF911F910F91FF909D
:1001E000EF907ECFA0E6B0E0EAE7F0E021E030E07B
:1001F00087B1807C87B997B18C911296892B87B98A
:10020000369A3699FECF44B185B190E0982F882771
:10021000840F911D91838083893C91051CF031836B
:10022000208302C011821082329680E0E838F807FD
:10023000F9F608951F93CF93DF93EAE7F0E020E00B
:1002400030E060E070E080E090E01AE04191519190
:10025000D90113974A9FE0014B9FD00D5A9FD00DB3
:1002600011241C9FD0011D9FB00D11248A0F9B1FCC
:10027000640F751F2F5F3F4F2730310539F7611528
:10028000710531F084D0709379006093780012C0CA
:1002900080917800909179008C3E2FEF92072CF09E
:1002A000459734F460E070E005C068ED7FEF02C070
:1002B00068E270E0CB01880F991FDF91CF911F9109
:1002C000089520918C0030918D0080917400909160
:1002D0007500B901681B790B309375002093740089
:1002E0008091700090917100289FA001299F500D6E
:1002F000389F500D11242091720030917300629F3D
:10030000C001639F900D729F900D1124840F951F63
:10031000089568DF8FDF90938D0080938C00D1DF8C
:1003200020916E0030916F0080918C0090918D0033
:10033000820F931F12DF80916E0090916F002091C9
:100340008C0030918D00821B930BF9CEDBDE929AEC
:1003500041E060E080E895E29EDEC0E0D1E0839974
:100360000DC0CD2709F407DF2FEF83ED90E3215077
:1003700080409040E1F700C0000002C0C111C9DF19
:100380008FE39CE90197F1F700C00000E8CF97FBED
:10039000072E16F4009406D077FD08D02DD007FC68
:1003A00005D03EF4909581959F4F08957095619585
:1003B0007F4F0895A1E21A2EAA1BBB1BFD010DC0A1
:1003C000AA1FBB1FEE1FFF1FA217B307E407F50705
:1003D00020F0A21BB30BE40BF50B661F771F881FE1
:1003E000991F1A9469F760957095809590959B0177
:1003F000AC01BD01CF010895AA1BBB1B51E107C091
:10040000AA1FBB1FA617B70710F0A61BB70B881FA4
:10041000991F5A95A9F780959095BC01CD01089533
:04042000F894FFCF7E
:100424000100000007000200050004000300500062
:020434000100C5
:00000001FF
