:1000000012C02CC02BC02AC029C028C027C026C0BF
:1000100025C024C023C022C021C020C01FC01EC0D4
:100020001DC01CC01BC011241FBECFE5D4E0DEBF25
:10003000CDBF10E0A0E6B0E0E6EFF3E002C005902F
:100040000D92A237B107D9F720E0A2E7B0E001C0D6
:100050001D92AE38B207E1F762D1CBC1D1CF9798EC
:10006000C09A86302FEF920714F486E09FEF9195A7
:100070008195910999BD88BD08959698959A863085
:100080002FEF920714F486E09FEF919581959109E7
:100090009BBD8ABD0895CF93DF93D62FC42FA0E0D8
:1000A000B0E09C01AD0184E0220F331F441F551FB7
:1000B0008A95D1F760E074E284EF90E064D121503A
:1000C000310930BD29B980B5806280BD80B58668B0
:1000D00080BDD111549AC111539ADF91CF910895E7
:1000E0005D9BFECF8CB90895ECE8F0E02AE030E0AB
:1000F000B90136D1805D8293CB0140E0E838F40746
:10010000B9F70895A0E6B0E0EAE7F0E021E030E0DA
:1001100087B1807C87B997B18C911296892B87B96A
:10012000369A3699FECF44B185B190E0982F882752
:10013000840F911D91838083893C91051CF031834C
:10014000208302C011821082329680E0E838F807DE
:10015000F9F6089587B3876087BB81B3846E81BB4E
:1001600092989698959A9798C09A8FB5806A8FBD05
:100170008FB581608FBD8EB588608EBD8EB5826073
:100180008EBD939A86B1876886B93E9A089580910C
:100190007800909179008C3E2FEF92074CF481E02B
:1001A00090E0909377008093760088ED9FEF0DC0EC
:1001B00045974CF082E090E0909377008093760032
:1001C00088E290E002C080E090E0209176003091DB
:1001D00077002130310539F497FD0BC0109277007C
:1001E0001092760008952230310519F41816190678
:1001F000ACF7089520918C0030918D0080917400AF
:1002000090917500B901681B790B309375002093AC
:1002100074008091700090917100289FA001299F27
:10022000500D389F500D11242091720030917300B1
:10023000629FC001639F900D729F900D1124840FE7
:10024000951F08951816190654F4979AC0988B3F75
:10025000910514F08AEF90E099BD88BD0895FFCE16
:100260001816190654F4969A95988B3F910514F038
:100270008AEF90E09BBD8ABD0895FFCE80E090E0BC
:10028000FCDE80E090E0EBCEEF92FF920F931F93A5
:10029000CF938AE7E82E80E0F82EC0E3F701819142
:1002A00091917F0121DF88E21BDF8C2F19DF89E22A
:1002B00017DF80E215DF08E810E0F80181918F0177
:1002C0000FDFF0E00C381F07C1F78AE009DF8DE08F
:1002D00007DFCF5FC73311F78AE002DF8DE0CF91F0
:1002E0001F910F91FF90EF90FBCECF93DF930ADF2A
:1002F0004EDF90938D0080938C007CDFEC01809129
:100300006E0090916F008C0F9D1FAADF80916E0090
:1003100090916F008C1B9D0BDF91CF9193CF1ADFD3
:10032000929A41E060E080E895E2B5DEC0E0D1E07D
:1003300083990DC0CD2709F4A1DF2FEF83ED90E362
:10034000215080409040E1F700C0000002C0C11180
:10035000CCDF8FE39CE90197F1F700C00000E8CF04
:1003600097FB072E16F4009406D077FD08D02DD009
:1003700007FC05D03EF4909581959F4F08957095A8
:1003800061957F4F0895A1E21A2EAA1BBB1BFD01A8
:100390000DC0AA1FBB1FEE1FFF1FA217B307E40764
:1003A000F50720F0A21BB30BE40BF50B661F771FBC
:1003B000881F991F1A9469F760957095809590959C
:1003C0009B01AC01BD01CF010895AA1BBB1B51E1EC
:1003D00007C0AA1FBB1FA617B70710F0A61BB70BB5
:1003E000881F991F5A95A9F780959095BC01CD015A
:0603F0000895F894FFCF10
:1003F6000300040005000200070000000100500091
:020406000100F3
:00000001FF
