:1000000012C02CC02BC02AC029C028C027C026C0BF
:1000100025C024C023C022C021C020C01FC01EC0D4
:100020001DC01CC01BC011241FBECFE5D4E0DEBF25
:10003000CDBF10E0A0E6B0E0E2ECF3E002C0059036
:100040000D92AE37B107D9F720E0AEE7B0E001C0BE
:100050001D92AC39B207E1F74DD1B1C1D1CF97981C
:10006000C09A86302FEF920714F486E09FEF9195A7
:100070008195910999BD88BD08959698959A863085
:100080002FEF920714F486E09FEF919581959109E7
:100090009BBD8ABD0895CF93DF93D62FC42FA0E0D8
:1000A000B0E09C01AD0184E0220F331F441F551FB7
:1000B0008A95D1F760E074E284EF90E04AD1215054
:1000C000310930BD29B980B5806280BD80B58668B0
:1000D00080BDD111549AC111539ADF91CF910895E7
:1000E0005D9BFECF8CB90895EAE9F0E02AE030E0AC
:1000F000B9011CD1805D8293CB0140E0E639F40761
:10010000B9F7089587B3876087BB81B3846E81BBDD
:1001100092989698959A9798C09A8FB5806A8FBD55
:100120008FB581608FBD8EB588608EBD8EB58260C3
:100130008EBD939A86B1876886B93E9A089518163F
:10014000190654F4979AC0988B3F910514F08AEFE2
:1001500090E099BD88BD089582CF1816190654F411
:10016000969A95988B3F910514F08AEF90E09BBD8D
:100170008ABD089582CF80E090E07FDF80E090E04C
:100180006ECFEF92FF920F931F93CF9388E8E82EE4
:1001900080E0F82EC0E3F701819191917F01A4DF07
:1001A00088E29EDF8C2F9CDF89E29ADF80E298DF75
:1001B00006E910E0F80181918F0192DFF0E00A3941
:1001C0001F07C1F78AE08CDF8DE08ADFCF5FC7337E
:1001D00011F78AE085DF8DE0CF911F910F91FF909D
:1001E000EF907ECFEEE6F0E0A8E8B0E087B1807C4B
:1001F00087B997B180813296892B87B9369A36991B
:10020000FECF24B185B190E0982F8827820F911DF1
:100210008D939D9380E0EC37F80741F70895CF93D5
:10022000DF93E8E8F0E0A0E6B0E060E070E080E0B6
:1002300090E021913191CD91DD912C9FA0012D9FD6
:10024000500D3C9F500D1124840F951F620F731F9A
:1002500020E0E639F20769F76115710539F066D0DB
:10026000CB01709387006093860012C08091860056
:10027000909187008C3E2FEF92072CF0459734F435
:1002800080E090E005C08CEE9FEF02C084E190E03A
:10029000DF91CF91089520919A0030919B00809139
:1002A000820090918300B901681B790B3093830021
:1002B000209382008091800090918100289FA0016E
:1002C000299F500D389F500D112420917E003091B0
:1002D0007F00629FC001639F900D729F900D11245B
:1002E000840F951F08957EDF9ADF90939B00809383
:1002F0009A00D1CF07DF929A41E060E080E895E272
:10030000CADE83990BC03DDF2FEF83ED90E32150D0
:1003100080409040E1F700C0000001C0E4DF8FE3BF
:100320009CE90197F1F700C00000EBCF97FB072E87
:1003300016F4009406D077FD08D02DD007FC05D028
:100340003EF4909581959F4F0895709561957F4FEC
:100350000895A1E21A2EAA1BBB1BFD010DC0AA1F06
:10036000BB1FEE1FFF1FA217B307E407F50720F01E
:10037000A21BB30BE40BF50B661F771F881F991F99
:100380001A9469F760957095809590959B01AC01E2
:10039000BD01CF010895AA1BBB1B51E107C0AA1FD5
:1003A000BB1FA617B70710F0A61BB70B881F991F16
:1003B0005A95A9F780959095BC01CD010895F894C0
:0203C000FFCF6D
:1003C2001E0014000A000000F6FFECFFE2FF01002D
:0E03D2000000070002000500040003003C00CC
:00000001FF
